:100000000C9446000C945D000C945D000C945D0013
:100010000C945D000C945D000C945D000C945D00EC
:100020000C945D000C945D000C945D000C945D00DC
:100030000C945D000C945D000C945D000C945D00CC
:100040000C945D000C945D000C945D000C945D00BC
:100050000C945D000C945D000C945D000C945D00AC
:100060000C945D000C945D000C945D000C945D009C
:100070000C945D000C945D000C945D000C945D008C
:100080000C945D000C945D000C945D0011241FBE67
:10009000CFEFD0E4DEBFCDBF11E0A0E0B1E0E8E4F7
:1000A000F1E000E00BBF02C007900D92AE30B10747
:1000B000D9F70E9470000C94A2000C940000CF931A
:1000C000C82F8A3019F48DE00E945F009091C00023
:1000D00095FFFCCFC093C60080E090E0CF910895DB
:1000E00011B88FEF82B987B918B820E080B18F704E
:1000F00090B1907F3FEF380F3230A0F03DEF380FD6
:10010000323090F03BEF380F323080F039EF380F5B
:10011000333070F036EF380F333060F08D5083306D
:1001200058F00BC020E609C020E707C028E305C04F
:100130002CE303C02EE301C02FE3903309F4285FC2
:0801400028B9D4CFF894FFCFD9
:0E01480000000002000000005F000000000048
:00000001FF
